:020000040000fa
:080000000002040000000000f2
:020000040000fa
:0400080002040000ee
:020000040000fa
:04000c0002040000ea
:020000040000fa
:0400100002040000e6
:020000040000fa
:0400140002040000e2
:020000040000fa
:0400180002040000de
:020000040000fa
:04001c0002040000da
:020000040000fa
:0400200002040000d6
:020000040000fa
:0400240002040000d2
:020000040000fa
:0400280002040000ce
:020000040000fa
:04002c0002040000ca
:020000040000fa
:0400300002040000c6
:020000040000fa
:0400340004030000c1
:020000040000fa
:0400380002040000be
:020000040000fa
:04003c0002040000ba
:020000040000fa
:0400400002040000b6
:020000040000fa
:0400440002040000b2
:020000040000fa
:040048005e03000053
:020000040000fa
:04004c0002040000aa
:020000040000fa
:0400500002040000a6
:020000040000fa
:04005400ba030000eb
:020000040000fa
:040058008e03000013
:020000040000fa
:04005c006803000035
:020000040000fa
:040060000204000096
:020000040000fa
:040064000204000092
:020000040000fa
:04006800020400008e
:020000040000fa
:04006c00020400008a
:020000040000fa
:040070000204000086
:020000040000fa
:040074000204000082
:020000040000fa
:04007800020400007e
:020000040000fa
:04007c00020400007a
:020000040000fa
:040080000204000076
:020000040000fa
:040084000204000072
:020000040000fa
:04008800020400006e
:020000040000fa
:04008c00020400006a
:020000040000fa
:040090000204000066
:020000040000fa
:040094003403000031
:020000040000fa
:04009800020400005e
:020000040000fa
:04009c00020400005a
:020000040000fa
:0400a0000204000056
:020000040000fa
:0400a4000204000052
:020000040000fa
:0400a800020400004e
:020000040000fa
:0400ac00020400004a
:020000040000fa
:0400b0000204000046
:020000040000fa
:0400b4000204000042
:020000040000fa
:0400b800020400003e
:020000040000fa
:0400bc00020400003a
:020000040000fa
:0400c0000204000036
:020000040000fa
:0400c4000204000032
:020000040000fa
:0400c800020400002e
:020000040000fa
:0400cc00020400002a
:020000040000fa
:0400d0000204000026
:020000040000fa
:0400d4000204000022
:020000040000fa
:0400d800020400001e
:020000040000fa
:0400dc00020400001a
:020000040000fa
:0400e0000204000016
:020000040000fa
:0400e4000204000012
:020000040000fa
:0400e800020400000e
:020000040000fa
:0400ec00020400000a
:020000040000fa
:0400f0000204000006
:020000040000fa
:0400f4000204000002
:020000040000fa
:0400f80002040000fe
:020000040000fa
:0400fc0002040000fa
:020000040000fa
:0401000002040000f5
:020000040000fa
:0401040002040000f1
:020000040000fa
:0401080002040000ed
:020000040000fa
:04010c0002040000e9
:020000040000fa
:0401100002040000e5
:020000040000fa
:0401140002040000e1
:020000040000fa
:0401180002040000dd
:020000040000fa
:04011c0002040000d9
:020000040000fa
:0401200002040000d5
:020000040000fa
:0401240002040000d1
:020000040000fa
:0401280002040000cd
:020000040000fa
:04012c0002040000c9
:020000040000fa
:0401300002040000c5
:020000040000fa
:0401340002040000c1
:020000040000fa
:0401380002040000bd
:020000040000fa
:04013c0002040000b9
:020000040000fa
:0401400002040000b5
:020000040000fa
:0401440002040000b1
:020000040000fa
:0401480002040000ad
:020000040000fa
:04014c0002040000a9
:020000040000fa
:0401500002040000a5
:020000040000fa
:0401540002040000a1
:020000040000fa
:04015800020400009d
:020000040000fa
:04015c000204000099
:020000040000fa
:040160000204000095
:020000040000fa
:040164000204000091
:020000040000fa
:04016800020400008d
:020000040000fa
:04016c000204000089
:020000040000fa
:040170000204000085
:020000040000fa
:040174000204000081
:020000040000fa
:04017800020400007d
:020000040000fa
:04017c000204000079
:020000040000fa
:040180000204000075
:020000040000fa
:040184000204000071
:020000040000fa
:04018800020400006d
:020000040000fa
:04018c000204000069
:020000040000fa
:040190000204000065
:020000040000fa
:040194000204000061
:020000040000fa
:04019800020400005d
:020000040000fa
:04019c000204000059
:020000040000fa
:0401a0000204000055
:020000040000fa
:0401a4000204000051
:020000040000fa
:0401a800020400004d
:020000040000fa
:0401ac000204000049
:020000040000fa
:0401b0000204000045
:020000040000fa
:0401b4000204000041
:020000040000fa
:0401b800020400003d
:020000040000fa
:0401bc000204000039
:020000040000fa
:0401c0000204000035
:020000040000fa
:0401c4000204000031
:020000040000fa
:0401c800020400002d
:020000040000fa
:0401cc000204000029
:020000040000fa
:0401d0000204000025
:020000040000fa
:0401d4000204000021
:020000040000fa
:0401d800020400001d
:020000040000fa
:0401dc000204000019
:020000040000fa
:0401e0000204000015
:020000040000fa
:0401e4000204000011
:020000040000fa
:0401e800020400000d
:020000040000fa
:0401ec000204000009
:020000040000fa
:0401f0000204000005
:020000040000fa
:0401f4000204000001
:020000040000fa
:0401f80002040000fd
:020000040000fa
:0401fc0002040000f9
:020000040000fa
:0402000002040000f4
:020000040000fa
:0402040002040000f0
:020000040000fa
:0402080002040000ec
:020000040000fa
:04020c0002040000e8
:020000040000fa
:0402100002040000e4
:020000040000fa
:0402140002040000e0
:020000040000fa
:0402180002040000dc
:020000040000fa
:04021c0002040000d8
:020000040000fa
:0402200002040000d4
:020000040000fa
:0402240002040000d0
:020000040000fa
:0402280002040000cc
:020000040000fa
:04022c0002040000c8
:020000040000fa
:0402300002040000c4
:020000040000fa
:0402340002040000c0
:020000040000fa
:0402380002040000bc
:020000040000fa
:04023c0002040000b8
:020000040000fa
:0402400002040000b4
:020000040000fa
:0402440002040000b0
:020000040000fa
:0402480002040000ac
:020000040000fa
:04024c0002040000a8
:020000040000fa
:0402500002040000a4
:020000040000fa
:0402540002040000a0
:020000040000fa
:04025800020400009c
:020000040000fa
:04025c000204000098
:020000040000fa
:040260000204000094
:020000040000fa
:040264000204000090
:020000040000fa
:10040000efb621000eff27000e018800000000005b
:10041000000020000000e000020032000001200087
:100420002002880018000700f80007000000e00024
:1004300003003a0020692300010020000200370079
:100440000000200001002000810f70000200320037
:100450000001eb0012000700100007000000200060
:100460000000e00002003200000002000000000076
:1004700094040700c039020000000000a204070035
:100480000040da000000fe00200020000000e00034
:1004900002003200100020009001880000000600d9
:1004a000a1028800800478000000eb0020003700e3
:1004b0000a054100e284440054a0b4009905ba0042
:1004c000e284440054a0b4009906ba00e2844400d7
:1004d00054a0b4000006eb00476fde00fd07b20039
:1004e000ae018800636ce10003003a000ad8010005
:1004f0000000eb000e003700606ce10008003a00dd
:10050000004deb000a05e800020039003420ec0041
:100510000af0a0008b05e900f9ff3e000400370057
:100520006168e100010032000086eb000b0007006b
:1005300019c7ba000e04e0001905ba0003003a001a
:100540000a00e000daff3a0000000600fe07b200f1
:10055000ae0288008a047800f5ff37000cd0a300b3
:10056000e20f4d001c003b0089027800354dba00b7
:100570000a05e800020039003420ec000af0a0006f
:100580008b05e9000f003200254dba000a05e8008e
:10059000020039003420ec000af0a0008b05e900cd
:1005a000080032000c00e0000600320015cdba0051
:1005b0000a05e800020039003420ec000af0a0002f
:1005c0008b05e9008984e80054a0b4000b00e0002a
:1005d000e2ff3a00000006009902ba00055d7800cb
:1005e0008b05e900f7ff3200c82ade00055d7800c0
:1005f0008b05e900f3ff32000c00e000f1ff320050
:1006000019ddba00eeff37003600f800809fbe000b
:10061000829fbe00849fbe00869fbe000000fa003d
:100620000068a9009b1707005d1a0700cc1207009d
:100630009f110700c90b07002714070020838000c3
:100640000000e80020838800000000000080fa001d
:100650004f03be004f02be004f01be004f00be0060
:100660003600f900004006003600f800809fbe000a
:10067000829fbe00849fbe00869fbe000000fa00dd
:100680000368a900d70a070020838000f80f5000f4
:10069000020034006430ef00290b07000000000066
:1006a0000080fa004f03be004f02be004f01be00a3
:1006b0004f00be003600f900004006000000fa00be
:1006c0000108a900000000000080fa0000400600b8
:1006d000801f78000000fa0001a8a900001880001f
:1006e000c0da880010188000d0da88002018800056
:1006f000e0da880030188000f0da880040188000c6
:1007000000db880010c0b30093f0b70000000000c9
:100710000080fa004f007800004006003600f80024
:10072000809fbe00829fbe00849fbe00869fbe0049
:100730000000fa000188a900118480000084800074
:10074000808f5000020032004e1907000100370070
:100750008470ef00000000000080fa004f03be002c
:100760004f02be004f01be004f00be003600f90030
:10077000004006003600f800809fbe00829fbe0049
:10078000849fbe00869fbe000000fa000168a90099
:10079000101180004200de0061406000e14f500017
:1007a00001003a002242a900101180000000d1008f
:1007b00061406000e14f500005003a002222a9008c
:1007c000030037003011800000407800a21a0700b3
:1007d000101180000040780061406000e14f50003f
:1007e000f8ff3200000000000080fa004f03be0056
:1007f0004f02be004f01be004f00be003600f900a0
:10080000004006000040da000000fe000000050085
:1008100014002000c5033700f4ff2f00c303370086
:100820000001be003d0007000470a70003f0a10016
:100830006509b100160032000d0035006828e1009e
:1008400006003500f0ff2f00f1ff27000300e00055
:1008500013003b00010028000000050000004000dc
:10086000818048008502e900fcff3a00080037005b
:10087000f88f420002003c008000eb000000050001
:100880008100d1000080d3008502e800fcff3a001f
:100890000300e00002003b0060001000e080180050
:1008a000000006000001be001c0007000470a70045
:1008b00003f0a10003f8a30013003a006509b1009a
:1008c00010003200090035006928e10002003500ff
:1008d0000100280000000500000040008180480061
:1008e0008502e900fcff3a0000000600f88f420094
:1008f000050035008100d1000080d3008502e800aa
:10090000fcff3a00000006008000eb00000005003c
:100910004f89de00820178009f033700c70ade009e
:10092000f107b200f50fb20008003200e1cf42003b
:10093000020032000170a00024000500810f700049
:10094000010032000408050044000500810f70001a
:1009500002003a00140005008502e9000000400092
:1009600081c04800fcff3b000170a000240005008e
:1009700007f82700078361000638e10004003a0009
:10098000f7072000878361008703710001003a00a8
:1009900003f0a200889fbe008a9fbe008c9fbe000d
:1009a000470ade000480a100c71ade000580a1000e
:1009b000070028000785600087856100f70f200089
:1009c0000720e1009e0032000728e1009c00320071
:1009d000010678000400e000b4003200f7072000b0
:1009e000878060000170a0000500e000c0003200b8
:1009f000f7072000878161000370a0000506520000
:100a00000f003a000b50e1000b0032000308e10038
:100a100002003a000200e1007e00320002045000b1
:100a200083845800040031000001fd008101fd00b5
:100a30008402fd008a05fd006044b80021003700f3
:100a40000520e10005003d000001fd008101fd00e1
:100a50008402fd008a05fd00050652007a60e1006f
:100a6000050035000170a1004722dd008480700080
:100a70008a807000630037006044b800ef026600af
:100a800007ff2f00070666000500e000060034009f
:100a9000f08312008714dd000511de00071bdd0066
:100aa000060171008519de007060e1000500350067
:100ab0000904780082047800030178008001eb00cb
:100ac000700656000b50e10003003a00020040009f
:100ad000838048000400370060041400e0841c0098
:100ae00002005800838058000188a30006003200ed
:100af0008100d1000080d3008984d3000884d30012
:100b00000402e800270037000178a30025003a001e
:100b10000100e000030032008186cf0069865600a4
:100b20000a0037008c0020000000e00004003a00ba
:100b300009007800880478000004eb00700252007d
:100b40008086cf000d0646000c06e9007060e100cb
:100b500006003500800078000900780088047800dd
:100b60000004eb0070065600700252000c00e0001a
:100b70000c0034008c08dd00f00316000703de00d3
:100b8000868070000c00dd00074bde000600700060
:100b90008c4cdd000743de00868474000c44dd00cd
:100ba0000c0252006120e10020003500610160006c
:100bb0000700280087816400f7ff2700878364000f
:100bc000070374000300e000060032008203730094
:100bd000040032000000e800e08048000188a30023
:100be0000e003a00f70f20000720e1004a003d0008
:100bf0000170a1004722dd00810072008a80700030
:100c00000000be004f06be004f05be004f04be00f0
:100c1000000006006000b800faff37008100d10034
:100c20000080d3000402e800eeff370004017800e2
:100c300089017400a10107008a807000f1ff37006c
:100c4000f7010700070278000001fd008101fd00a7
:100c5000f301070087027800850372000778a3007c
:100c6000040032000001fd008101fd0006020700c2
:100c7000e4ff3700850362000768a3000800320024
:100c80000b50e10003003200f0ff2f00f1ff2700be
:100c9000dcff37000001fd008101fd00d9ff3700b6
:100ca0000468a300d7ff3200faff3700f8ff2700df
:100cb000888360000b003a000000e00009003a0061
:100cc0008303640082837300020032000200be00ce
:100cd000ccff37000b50e100ceff3a000200be000f
:100ce000c8ff370014002000810064003eff370079
:100cf000f8ff27008883610004003a000200e0004a
:100d000002003a008c007800beff3700150020007a
:100d10008301640039ff370001f82700000020003c
:100d200081007500b7ff3700889fbe008a9fbe0014
:100d30008c9fbe001b0020000202be0005866800da
:100d400006002800060666004709de00f20fb20022
:100d5000820032000243e80080003200c729de0032
:100d6000f30fb2007d0032000343e8007b00320045
:100d7000f107b2000170a000f507b2000570a000f5
:100d8000c708dd004903de00868070004700dd00f3
:100d9000c72add004923de00868272004722dd007b
:100da00003055100040350008583580003003100ff
:100db00000004000818048000a05e9008c1f78008f
:100dc0008a9fbe0004005000858058000402420043
:100dd00085824a0000004000818048000005eb0049
:100de0000004be006033b8000406be000d48e100f8
:100df00056003100110009004dccd8000c01b8009c
:100e00000d02b8008481410060824a008283530051
:100e100003045c0084845c0060055d000a00e0005f
:100e200025003a00800578000d40e10049003100be
:100e30008800780007007800110009004d88d8006c
:100e40000c01b8000d02b8008481410060824a00a4
:100e50006003110083835b0004045c00e0845c0099
:100e60000900e00021003a004f01be000300e0004d
:100e70002b003200e3016000070673008c817100d3
:100e800001003200640070004200de004e5edd00b2
:100e90000c007000c258de0001e0a00083010700d2
:100ea000cf017800818071004f06be004f05be0063
:100eb0004f04be00000006008c8343000d044c006c
:100ec000e0844c0060054d000000e9000a00e000ed
:100ed000d4ff32008c8343000d044c00e0844c00ae
:100ee00060054d000000e900ceff37000c03430011
:100ef0008d834b0060044c00e0844c000000e9004e
:100f00000900e000d8ff32000c0343008d834b0042
:100f100060044c00e0844c000000e900d2ff370080
:100f20004200de004e5edd000c007000c258de00a4
:100f300001e0a000cf0178000300e000daff3200fa
:100f400060001000e0801800d7ff3700f0ff2f008e
:100f5000aaff3700f0ff2f00b9ff37000404be00de
:100f60002f010700870678000004fd008104fd00c2
:100f70002b010700078366000678a30003003200f8
:100f80000960a7000800be002c0037000d78a30000
:100f9000020032000800be00280037000778a300d6
:100fa00026003a0001f0a10009f0a1000668a300a4
:100fb00003003200f1ff2700f0ff2f00baff3700d7
:100fc0000d68a300030032000800be008c80700092
:100fd000b5ff37000768a30007003a000648a300e2
:100fe00003003200f1ff2700f0ff2f00aeff3700b3
:100ff0000d48a300030032006000b8008c80700030
:10100000a9ff37000748a3000400320001f82700b9
:10101000000020008c807000a3ff370076010700dd
:101020000004fd008104fd00020578007201070044
:101030000802be008a01780059ff37000160a00055
:1010400012022000a284880097ff37000100e00010
:10105000120032000500e00010003200889fbe0040
:101060008a9fbe008c9fbe000006eb0001f8a30023
:101070000300320060001000e08018000cf0a000b7
:1010800005f8a3000300320060021200e0821a009b
:101090000cf0a2008005eb0041ff37006000b800b3
:1010a00002000500038368000700280007036300af
:1010b000470ade000480a100c71ade000580a100f7
:1010c000f70f20000720e100420032000728e1006e
:1010d00040003200889fbe008a9fbe008c1f7800af
:1010e000f107b200f307b2000400e0006400320030
:1010f0000170a0000500e000680032000370a0004d
:1011000085054200eb07b1000204b8000302b800f5
:101110008484440060854a00020ab8008484440044
:101120000a854a00030ab80004054500040033009c
:101130000804d0008984d2000a85d2008b05e9001a
:101140006158e1003d0035000210200009016100f6
:101150000308200089816100f7072000878364006d
:1011600008867300c84cde00c853dd008784740015
:101170004855de000300e0000600320082037600de
:10118000040032008904e80060054d000a88a300cd
:101190000c003a00f70f20000758e10044003d0022
:1011a0000a70a100c75ddd000a8575008a00730022
:1011b000090078004f0678004f05be004f04be00be
:1011c000000006000a05d1008984d3008b05e800e1
:1011d000f0ff3700881f78000604780090000700b1
:1011e000070278000001fd008101fd008c0007006e
:1011f00087027800850372000778a300050032009b
:101200000001fd008101fd009f0007004f047800f0
:1012100000000600850372000748a30003003200a7
:10122000f0ff2f00f1ff2700f8ff3700000020003b
:1012300001f8270088807000f4ff370088017800eb
:101240004848dd00808171004848de00c850dd005c
:1012500001007000c850de00060478000b01780021
:101260001600070088807000d2ff37000500e000fc
:1012700005003200170020003a0007009dff3700ec
:1012800081037000f9ff3a00860078004f0678006d
:101290004f05be004f04be0000000500830371002f
:1012a000f9ff3200270020002e00070094ff3700ce
:1012b00001f8270086807000f4ff37000100e0008d
:1012c00026003200610111007810e10023003c008b
:1012d0006022b8007010e100040035008002780040
:1012e000010078008000eb00700151000200e00076
:1012f0000900340070031100062add00822ade0096
:101300008603dd00878272000200de00860bdd00ae
:10131000070070008208de0084817100f4ff27005e
:1013200004826200848171000400280084826200cb
:101330006102600005f0a600000006000482710052
:10134000070032000000e800e080480000000600ce
:101350000002be006000b800efff37006000b80078
:1013600000000600889fbe000004eb006138e10029
:1013700016003a000100e00008003a00c800de0054
:101380004800dd00880020000100e00003003a0072
:10139000c800de004800dd00680444008184cf00fe
:1013a000e9845400060034008908dd00f08314004d
:1013b0008703de00878070000900dd000904440017
:1013c000610214004f04be00000006000300e000ac
:1013d00008003a00c811de004811dd008800200036
:1013e0000300e00003003a00c811de004811dd00f0
:1013f000680444008384cf00e9845400060034006c
:101400008919dd00f08314008713de0087817100e5
:101410000911dd0009044400e1021400e9ff37006e
:101420002700200001f0a70017002000470bde0076
:10143000f60fb200040032000643e8000a00320052
:101440004702b3000000060001037800f607b2006f
:101450000603700002003a000703b3000000060014
:101460008702b3000000060001037800f607b2000f
:1014700006037000020032000770a00000000600a2
:101480000760a000000006000478a30004003200fa
:101490000578a300030032000168a30001003a00b0
:1014a0000200be000160a000000006008101700083
:1014b000270032008002eb0001f8a3000300320095
:1014c00060001000e080180015002000f4072000e4
:1014d0000202420020003400f7032000870360006e
:1014e00006042000000363000208200000016100e0
:1014f0004700de00c909dd0000807100c708de007a
:101500000600e00008003200870371000600320088
:101510001000b0000180b0000188a300020032007a
:10152000c108de000402e800f107b200f30f20005a
:101530000320e10003003d004722dd00810072002e
:101540002900370001f827000000eb0026003700d3
:101550006000b80000000600680212007f20e10071
:10156000020034006000b8001f0037006011b800ae
:101570007020e1000400350080017800010078004f
:101580008000eb00700252000400e000090034000b
:10159000f00312000719dd008419de000703dd00e7
:1015a000868171000400de00070bdd00060070007c
:1015b0008408de00f7ff2700838363008703710040
:1015c0000600280003036300070032000700e00064
:1015d00003003a00610160000281730002003200e2
:1015e0001000b0000180b0000500a6000000060059
:1015f00001f0a000000006004f0ade004709de00ef
:10160000f107b200f20fb2000b003200f207b10096
:101610000170a000c708dd00c901de0083807000f2
:101620004700dd000400a600000006006000100076
:10163000e080180000000600810f700001003a00f1
:10164000000006008182cf000500e00010003e008f
:101650008082cf00ee8242007028e1000400390051
:1016600007003e00800078000000eb000e0037000d
:10167000708312008600de000500dd000a003700de
:10168000708352008600dd000000eb00060037008a
:10169000e28252008508dd00708312000603de003e
:1016a000868070000500dd007507b0000501ea00c6
:1016b0000400a6000000060060001000e080180092
:1016c00000000600889fbe008a9fbe005400f800fc
:1016d0000a0020000a00e000070032000900200094
:1016e00008002000a9028800b805ba000b0001001c
:1016f0000a85e900fcff3c005400f9004f05be00dc
:101700004f04be0000000600889fbe008a9fbe00f6
:101710005400f8000a0020000a00e000f6ff320042
:101720000900200008002000eeff3700889fbe005f
:101730008a9fbe00841f78007c0007004f0078005d
:1017400011003300f0ff2f00838f6c0006003b0078
:10175000040565000a00a7000800370009f0a6008c
:101760001000200008003700820f5400838f5c00b7
:10177000030039001000200001003e00000020009e
:1017800009f0a7000000ea004f05be004f04be00ac
:101790000000e00000000600881f780003047800c5
:1017a0000300e00007003d0060001000e08018002a
:1017b00060011900e081190002003b0001f02d00da
:1017c000030037000400070008f0a70001f0a000a4
:1017d0004f04780000000600889fbe008a9fbe006c
:1017e0000082700004027100048271002600320041
:1017f0000004be000200be006011b8006b092000aa
:10180000950220000182cf000a0039000541b10095
:101810000082cf00070039000541b1000982cf00e6
:10182000040039000541b1000882cf0001003900f1
:101830000541b10005425200120032000a003b008f
:1018400082817100610164008100d1000080d300b9
:101850008984d3000884d3008b05e8000442e800a3
:10186000f7ff3a00070037000804440089844c0061
:1018700000004800818048008b05e9000442e9002f
:10188000f9ff3a00030007004f05be004f04be00f9
:101890000000060081002000618055000b003d0023
:1018a0000b00200061fe2f000100e1001d0034004c
:1018b00082817100610164008904d1000884d30031
:1018c0000000e800faff3a007100200061006400a7
:1018d000030070000200600009003200610444004f
:1018e000e0844c000988a500050032008b05e80063
:1018f0006808e10002003a008904d1000884d3009e
:10190000f20f20000258e10005003d00c75ddd0038
:10191000f907b20089807500080078000000060011
:101920000bf827008b007800000005000004be00c3
:10193000fafb07000003be000405be000200be0063
:10194000f6fb0700844f750000000600ea87470099
:10195000889fbe008a9fbe008c9fbe008e1f7800ad
:101960000002be004f0dde000b00200000047800d6
:101970008504780009f0a100f0ff2f00f1c72400d2
:10198000800f5400818f5c001000360000002000a2
:1019900001f82700800f5400818f5c0025003e0075
:1019a0000200200003382000a0fd200091fc23004d
:1019b000f8fb07000002be00e00f5500e08f5d005d
:1019c0001c00320005f0a2001a003700f0ff2f00c3
:1019d000f1ed2300800f5400818f5c001c003e005d
:1019e0000087eb00f0ff2f00f1972300800f5400d9
:1019f000818f5c0033003e006000b80003f82700d0
:101a000085806100e00f5000e08f580009003a0027
:101a10000401be000400be00f4b79f0085bf9f0014
:101a2000a0fd0700d0b79f00e1b79f007fb29700ed
:101a30008fba97000400be004f0778004f06be0023
:101a40004f05be004f04be00af00b100000006000d
:101a50000400be00f50007000006be00f0ff2f00e6
:101a600071f92300800f5400818f5c0055003e0007
:101a7000f0ff2f00f1f22300800f5400818f5c00f3
:101a800041003e000c01be000c00be00c1fb07007f
:101a90000200200003f82300b5fb07000004be008d
:101aa00002002000030024000c00be00b9fb070068
:101ab0000001be000800be009bfc07000002be0043
:101ac0000007eb000401be000400be00f4b79f0055
:101ad00085bf9f0073fd07000006be000001be0029
:101ae00070fd07000004be0052c22a00c3d72300c5
:101af0006cfd0700d2502f0013e12300a5fb070067
:101b00000801be0067fd070092aa2a00a3ea23008d
:101b1000a0fb07000c01be0062fd07000006be002e
:101b200072242100a3dd2b000800be005dfd07002c
:101b300082a92c00c3e423008dfb07000801be002e
:101b400058fd07000001be000c00be0091fb07001d
:101b50007fb297008fba97000401be0051fd0700c5
:101b60000003be007fb297008fba97000e00e0001e
:101b700032003d000001be000400be007cfb0700f7
:101b80000002be00abff37000200200003f8230074
:101b90000c00be0076fb07000004be00020020001f
:101ba00003f823000c00be007afb07000001be0012
:101bb0000800be005cfc07000002be001e00200002
:101bc000c0ff3700f0ff2f00b1012400800f540048
:101bd000818f5c0012003e000200200003fc230005
:101be0000c00be0062fb07000004be0002002000e3
:101bf00003fc23000c00be002afd070002002000a9
:101c000003f8230063fb07000001be000800be00cc
:101c100045fc07000002be002e002000a9ff37008f
:101c20000c01be000000200001f82b003efc070064
:101c30000002be003e002000a2ff37004277dd0018
:101c400088b421000e04440080b321000e07400038
:101c50001e0178009e0190000600be00f4b79f00b0
:101c600085bf9f0042fb07007fb297008fba9700a5
:101c70000401be003efb07000001be001800780012
:101c8000980090003afb07004aff37000400fa0072
:101c9000000178008101780003f0a100a4fd20007c
:101ca00095f42300840f5100858f59000e003e00eb
:101cb000f4ff2f00f5972300840f5100858f590002
:101cc0003a003e000200200003b8270031fb070065
:101cd000e0bf9f00f1bf9f000000200001f823003b
:101ce0000080fa00000006004f0ade000500200018
:101cf000163d2500b7072400860f5100878f590035
:101d00001b003e0036be2c0067012400860f5100e8
:101d1000878f59000a003600b2fd2000930424008a
:101d20000400e000040032001afb0700ee01070087
:101d300001f0a200eaff37000dfb0700fbff3700b0
:101d40000400e00005003200b2fd200093fc2300f7
:101d500010fb07006f020700e1ff37000001be0023
:101d6000b0fd200091fc230001fb0700f9ff3700c4
:101d7000561d2300270e2400860f5100878f59001f
:101d800014003e00f6dd2e00f70a2400860f5100f5
:101d9000878f590009003600b2fd2000930c240003
:101da0000400e00003003200fafa0700ce01070049
:101db000cbff3700eefa0700fcff37000400e0001d
:101dc0000100320001f0a20042be2c006309240091
:101dd000e5ff3700f4ff2f00f5f72700840f5100cf
:101de000858f5900030036000001be00e0fa0700ad
:101df000bbff370064815700ef01070063016000fb
:101e00006fb89700ffb89700e10f5100050032004e
:101e1000e20f5100c5ff32000200e000cdff3a00a2
:101e2000e2ff370001f0a200caff3700010178008d
:101e300002f0a10082007800000006000400fa0011
:101e4000889fbe008a9fbe00020341008383490031
:101e5000e00f5300e08f5b001000320002027800b8
:101e60008302780005f0a1000800200009f827008f
:101e7000880f5200898f5a0008003e00a0bf9f00c3
:101e8000b1bf9f00470dde000b002000f40f2000c3
:101e90000a056200840f550007003a0081fc070024
:101ea0000001be00a0fb07004f05be004f04be00ae
:101eb0000080fa0000000600000240008182480015
:101ec000840f5300858f5b0006003900840f530098
:101ed000858f5b00f4ff3a006011b80071fc0700c9
:101ee000f1ff37000a00e0004c003a002fbb9700da
:101ef000bfbb9700493add00c732de0085027200a1
:101f00004932dd00e00f5200e08f5a003f003d00f3
:101f1000610215002fbb9700bfbb97000404780037
:101f20000804e900030033000603430087834b00e5
:101f3000fbff37000602be00471bde000700200043
:101f40000683fb000600e0003d003a00491cdd006e
:101f5000c714de00890474004914dd00e00f54004a
:101f6000e08f5c0032003d00e10313000204be007c
:101f70008703e900030033000804440089844c000f
:101f8000fbff37000801520089815a00860f550077
:101f90002f003c00e00f5100e08f59000400350095
:101fa000e00f5100e08f5900cbff32000202be006b
:101fb0004728de0001002000e00f5000e08f5800ad
:101fc0002e0032000a00e000300034000000200043
:101fd00001f82f0004024000858248006150b900da
:101fe000c700dd0000002000040070008580700044
:101ff0006022b80002002800bfb997008302610088
:102000000000720081807200a7ff37000a05e90016
:102010000402420085824a00baff37002fba9700b7
:10202000bfba9700f507b2000570a000c2ff3700e5
:102030000603e9000804440089844c00c7ff370008
:102040000204be00f907b2000970a000cdff3700fe
:10205000e00f5100e08f590004003500e00f5100ff
:10206000e08f59009cff32000202be0004024200d1
:1020700085824a000a05e900c2ff370004024200d7
:1020800085824a000a05e900c9ff3700610515008d
:102090000400be000a05e900030033008100d100fe
:1020a0000080d300fbff3700d1ff37000400fa00a7
:1020b000889fbe000004be008900780001f0a100e6
:1020c000a4fd200095f42300840f5000858f580054
:1020d0001e003e00f4ff2f00f5972300840f5000f0
:1020e000858f580016003e006000b80003f82700f6
:1020f00089806100e00f5000e08f58000b003a002b
:1021000002002000033820000800be00e5fb0700a5
:102110000001be00c2bf9f00d3bf9f000800be00e9
:102120004f04be000080fa000000060002002000fc
:1021300003b827000800be0016fa0700f4ff3700b6
:102140000800be0073010700180037004f49de0089
:1021500003002000143d2500b5072400840f500023
:10216000858f58001d003e0034be2c006501240000
:10217000840f5000858f58000e003e000800be00fe
:102180000200e000b2fd200093fc230005003200b5
:1021900000fa0700d40007000004be0009f0a20006
:1021a000deff3700f2f90700cf0007000004be0091
:1021b000daff37000800be000200e000b2fd200098
:1021c0009304240003003200f2f9070001f0a2009a
:1021d000dcff3700e6f90700fcff3700541d230041
:1021e000250e2400840f5000858f580017003e00f4
:1021f000f4dd2e00f50a2400840f5000858f58006e
:1022000009003e000800be000200e00042be2c00b3
:102210006309240002003200def90700e2ff370004
:10222000d3f90700dbff37000800be000200e00022
:10223000b2fd2000930c240002003200d5f9070003
:10224000c0ff3700caf90700beff3700f2ff2f00ba
:10225000f3f72700820f5000838f580005003600e7
:102260000801be000800be00c1f907000004be005e
:10227000aaff3700688157000800be00ce000700a3
:10228000630160004fb89700dfb89700e10f51007d
:10229000c5ff3200e20f5100ccff32000200e00027
:1022a000bcff3a00a7ff3700889fbe008a9fbe0090
:1022b0008c1f78000004be000003be006055b8000b
:1022c00004f82700890562000400200005f82700b3
:1022d000840f5500858f5d000b003a000001be00a1
:1022e00070fb07000001be000800be00a9f907004e
:1022f0000004be000800be004f0678004f05be0077
:102300004f04be0000000600e00f5000e08f5800b0
:1023100011003c00000278008102780005f0a10065
:10232000e00f5200e08f5a00f2ff3200e00f500041
:10233000e08f580008003d001002200060db88009c
:102340000801be000800be0089f907000001be00b8
:1023500075fa0700e6ff370047bdde00cfbdde009f
:10236000e00f5500e08f5d000c003a0006034300cb
:1023700087834b0061004500e0804d000001eb00c9
:10238000870178000308b200e00f5100e08f590088
:102390004d00320060051500e0851d00fa07b10010
:1023a0000b80b1000600be00f107b2000170a00072
:1023b000610165008001eb00e00f5100e08f5900e2
:1023c0000200320000004000818048008b85d1006f
:1023d0000a85d30000004000818048009c01200055
:1023e00002002000031020006044b8006033b800f1
:1023f0000602410087824900800f5200818f5a00f7
:1024000006003c000403410085834900040050009d
:10241000858058000804410089844900000040007c
:10242000818048008301d1000281d3000c06e900bd
:102430000c00e000eeff3a00e00f5000e08f580083
:10244000160032000226240023da200000002000bb
:1024500001f8230046f907000200200003f82300da
:10246000edf807000000e0000c0035000226240013
:1024700023da20000000200001f8230045f90700be
:102480000200200003f82300e3f807000000e0004a
:102490000f00340062044400e0844c008984d100c1
:1024a0000884d3000000200001f023000800400051
:1024b00089804800c755dd000a0020000a0440005a
:1024c0008b8448008bff37000005be00a7ff370054
:1024d00061004400e0804c00000478000800a10086
:1024e00081047800edff37000400fa00889fbe00e9
:1024f0008a9fbe008c9fbe000001be00e9fa070063
:102500000004be000001be00e6fa07000005be00a0
:102510000200200003f02b000800be00e1fa0700d3
:102520000200200003f823001af907000006be008d
:10253000f2a92a00a3d223000a00be00d9fa07009c
:102540000001be000c00be0012f907000002be0030
:1025500072a12900c37c23000800be0084bf9f0035
:1025600095bf9f00cffa0700f243200063ab230022
:10257000fff807000006be000a01be000800be000a
:10258000c8fa07000001be000c00be00c5fa070033
:102590000001be000fba97009fba97000400be006a
:1025a000fcf807004f06be004f05be004f04be00fa
:1025b0000080fa00000006000400fa00889fbe00b8
:1025c0008a9fbe008c9fbe000006780081047800c0
:1025d0008206780001f0a100a2fd200093dc240017
:1025e000820f5000838f580023003e0032982f0046
:1025f00023f2230089007800aafa070002002000d5
:1026000003b42400e3f807000200200003b4240010
:10261000d7f807000005be0081f807000004780025
:10262000a2fd200093fc23000a00be009dfa0700d3
:102630000001be000c00780089007800ccf807008b
:102640000002be00325a2800832823000a00be0080
:1026500084bf9f0095bf9f0092fa07000001be0053
:102660000fba97009fba97000400be00c0f8070099
:10267000808ebe000b003700f2ff2f00f3f727001b
:10268000820f5000838f58000c0036000001780044
:102690008901780089007800b5f80700808ebe00b7
:1026a0000004eb00080078004f06be004f05be0096
:1026b0004f04be000080fa00000006008900780088
:1026c0004c0007000005be0032982f0023f22300c3
:1026d00074fa07000200200003f02300adf80700a1
:1026e00053000700000478002bfc070032982f00ed
:1026f00023f223008cf907000001be000a00be008f
:102700009bf807006000b800a0069800b10698008a
:10271000d7ff37000400fa00889fbe008a9fbe00e2
:102720008c9fbe000006be000001be005dfa0700df
:102730000004be000001be000c00be0059fa0700f4
:102740000005be000801be000800be0055fa0700e3
:102750000a01be0053fa07000002be00c2c32600f1
:10276000636323000800be0084bf9f0095bf9f00e5
:102770004cfa0700f27c2000039523007cf8070048
:102780000001be000fba97009fba97000400be0078
:1027900044fa07000002be004288280083c02300dc
:1027a0000800be0084bf9f0095bf9f003dfa070050
:1027b000b2aa2a00a3e223006df807000a01be00b6
:1027c00038fa07000c01be0072f807000001be00d5
:1027d0000fba97009fba97000400be006df807007b
:1027e0004f06be004f05be004f04be000080fa0039
:1027f000000006000400fa006011b800e2bf9f006c
:10280000f3bf9f006fbb9700ffbb97000002be00a5
:10281000f3ff270083816300f2ff2f0002006200b4
:1028200082806200020163000080fa00000006005e
:102830000003be0039f807006011b8000470a7005b
:1028400007f0a1006509b1001b003200120035003d
:10285000860220000628e10008003500f3ff27006b
:10286000f2ff2f006110b9000700e00018003b00e4
:10287000030028006000b8000200050000004000ce
:102880008180480002014900838149008502e900f6
:10289000faff3a0008003700f88f420002003c00bf
:1028a0008000eb00000005008100d1000080d30013
:1028b0008502e800fcff3a000700e00004003b004e
:1028c00060001000e080180060011900e08119002c
:0428d00000000600fe
:020000040000fa
:1028d4000000fa00889fbe0060d4800071d480009c
:1028e40004d4800015d480000001be000400be00a2
:1028f400410d07000002be0000d4800011d4800006
:102904000001be000400be0018f807008001780032
:102914000101780003007800820078000000be0006
:1029240080d4880091d48800c4838000d58380003b
:10293400c0838000d18380000001be000400be007b
:10294400d7f90700000178000100780082027800be
:1029540000027800d2cc2c00c3e4230005007800e8
:10296400840078000000be00eef8070080017800c3
:102974000101780003007800820078000000be00a6
:10298400a0d48800b1d48800c0838000d1838000a3
:1029940002002000832c2400e2f807008001780064
:1029a4000101780003007800820078000000be0076
:1029b400c0d48800d1d48800c0838000d183800033
:1029c4006011b80091f707000000e00005003d0029
:1029d400a0d48000b1d4800001f0a200a0d488006b
:1029e400b1d48800a0d48000b1d480006011b800b4
:1029f40088f707000000e0000600350080d480005e
:102a040091d480006011b80082f707000000e00054
:102a14000c003d00a0d48000b1d480006011b80047
:102a24007af707000000e00043003c0080d48000f7
:102a340091d480006011b80074f707000000e00032
:102a44003d003c0080d4800091d480008e0f0700ac
:102a54000004be00a0d48000b1d480008a0f070017
:102a64000001be000800be006af707000000e00095
:102a74003100350080d4800091d480006011b8000a
:102a840064f707000000e00012003400c0838000f7
:102a9400d183800082712b00139d2300bcf70700b3
:102aa40000017800010078008202780000027800ba
:102ab400020020000312240005007800840078003e
:102ac4000000be009c0f0700c0838800d1838800eb
:102ad4005600370080d4800091d480006011b80083
:102ae4004af707000000e000010035004f003700fe
:102af400c0838000d183800082712b00139d23004a
:102b04009af707000001780001007800820278003b
:102b1400000278000200200003122c000500780057
:102b2400840078000000be006c0f0700c08388009a
:102b3400d18388003d003700c0838000d1838000aa
:102b44006011b80033f707000000e0001100340002
:102b5400c0838000d183800082712b00139d2300e9
:102b640082f70700000178000100780082027800f3
:102b7400000278006011b800050078008400780035
:102b84000000be006c0f0700c0838800d18388005a
:102b940016003700c0838000d18380006011b80024
:102ba4001af707000000e00010003d00c083800019
:102bb400d183800082712b00139d230074f70700da
:102bc4000001780001007800820278000002780099
:102bd4006011b80005007800840078000000be0091
:102be4003e0f0700c0838800d183880080d4800012
:102bf40091d48000240f07000004be00d0cc2c0028
:102c0400c1e42300200f07000001be000800be003d
:102c1400fef607000000e00004003d0080d48000c0
:102c240091d48000c0d48800d1d4880004d480001a
:102c340015d48000c0d48000d1d480000001be002f
:102c44000400be0052f707008001780001017800fb
:102c540003007800820078000000be0000d48800e1
:102c640011d48800c0838000d18380006011b80033
:102c7400e6f607000000e00001003200170037000c
:102c840080d4800091d48000ff0e0700a2702d0034
:102c940033c22300ddf607000000e0000100350028
:102ca4000e00370060d4800071d4800000d4880006
:102cb40011d4880020d4800031d4800040d588000d
:102cc40051d5880040d4800051d4800060d588005c
:102cd40071d588002000200070808800000000006a
:102ce4004f04be000080fa00000006000000fa0055
:102cf400889fbe008a9fbe0004d8800015d880003b
:102d0400e0d68000f1d680000001be000400be00c1
:102d140016f70700000178000100780082017800ae
:102d240000017800030078008200780020d9880030
:102d340031d98800e4838000f5838000e08380003b
:102d4400f18380000001be000400be00d4f8070037
:102d54000001780001007800820278000002780007
:102d6400d2cc2c00c3e42300050078008400780052
:102d74000000be00ebf707000001780001007800b6
:102d84008201780000017800030078008200780056
:102d940080d7880091d78800e0838000f183800089
:102da40002002000832c2400def7070000017800d5
:102db40001007800820178000001780003007800a7
:102dc40082007800a0d78800b1d78800e083800013
:102dd400f18380006011b8008cf607000000e00069
:102de40005003d0080d7800091d7800001f0a2004b
:102df40080d7880091d7880080d7800091d7800041
:102e04006011b80083f607000000e00006003500fa
:102e140020d9800031d980006011b8007df6070008
:102e24000000e0000c003d0080d7800091d78000b6
:102e34006011b80075f607000000e00043003c0094
:102e440020d9800031d980006011b8006ff60700e6
:102e54000000e0003d003c0020d9800031d9800012
:102e6400890e07000004be0080d7800091d780003f
:102e7400850e07000001be000800be0065f60700cd
:102e84000000e0003100350020d9800031d98000f5
:102e94006011b8005ff607000000e0001200340083
:102ea400e0838000f183800082712b0013a523004e
:102eb400b7f607000001780001007800820278006c
:102ec40000027800020020000312240005007800ac
:102ed400840078000000be00970e0700e08388009d
:102ee400f18388005600370020d9800031d9800052
:102ef4006011b80045f607000000e000010035004d
:102f04004f003700e0838000f183800082712b0042
:102f140013a5230095f6070000017800010078004e
:102f240082027800000278000200200003122c00c4
:102f340005007800840078000000be00670e0700da
:102f4400e0838800f18388003d003700e08380003f
:102f5400f18380006011b8002ef607000000e00045
:102f640011003400e0838000f183800082712b0023
:102f740013a523007df60700000178000100780006
:102f840082027800000278006011b8000500780021
:102f9400840078000000be00670e0700e08388000c
:102fa400f183880016003700e0838000f1838000fd
:102fb4006011b80015f607000000e00010003d00a5
:102fc400e0838000f183800082712b0013a523002d
:102fd4006ff6070000017800010078008202780093
:102fe400000278006011b8000500780084007800c1
:102ff4000000be00390e0700e0838800f1838800da
:1030040020d9800031d980001f0e07000004be00c3
:10301400d0cc2c00c1e423001b0e07000001be002d
:103024000800be00f9f507000000e00004003d00c0
:1030340020d9800031d98000a0d78800b1d788007a
:10304400e4d68000f5d68000a0d78000b1d78000f8
:103054000001be000400be004df607000001780028
:1030640001007800820178000001780003007800f4
:1030740082007800e0d68800f1d6880048d9800024
:1030840059d98000ead68000fbd6800000d48000a5
:1030940011d48000fcfa07000001be000a00be0043
:1030a400fff7070000017800010078008201780032
:1030b4000001780003007800820078000001be005f
:1030c4000800be0032f60700000178000100780015
:1030d4008201780000017800030078008200780003
:1030e40020d8880031d8880068d9800079d9800038
:1030f400ead68000fbd6800000d4800011d4800082
:10310400e9fb07000001be000a00be00e4f7070067
:103114000001780001007800820178000001780045
:1031240003007800820078000001be000800be00a1
:1031340017f607000001780001007800820178008a
:1031440000017800030078008200780040d88800ed
:1031540051d88800b8000700e0838000f183800024
:103164006011b800a9f507000000e000010032007a
:103174001600370020d9800031d98000c20d070025
:10318400a2702d0033c22300a0f507000000e00068
:10319400010035000d00370000d8800011d88000f0
:1031a400e0d68800f1d6880020d8800031d880008d
:1031b40040d9880051d9880040d8800051d8800077
:1031c40060d9880071d988000e30ef00000000003b
:1031d4004f05be004f04be000080fa000000060048
:1031e4000000fa0070808000e10f500008003200f7
:1031f400e20f5000080032000000e00008003a002e
:103204006000b800e0d68800f1d6880004003700da
:10321400affd070002003700b4fe07000000000005
:10322400000000000080fa00000006001000fa0010
:10323400889fbe008a9fbe0048d9800059d980006b
:103244000ad880001bd88000c0d68000d1d6800068
:103254008dfa07000001be000a00be0090f70700c7
:1032640000017800010078008201780000017800f4
:1032740003007800820078000001be000800be0050
:10328400c3f50700008fbe0068d9800079d980009b
:103294000ad880001bd88000c0d68000d1d6800018
:1032a40081fb07000001be000a00be007cf7070096
:1032b40000017800010078008201780000017800a4
:1032c40003007800820078000001be000800be0000
:1032d400aff5070020079800310798001e0078001a
:1032e4009e009000680247000001be008000eb00d1
:1032f40004007800450b07002e009000be009000eb
:10330400680247000001be0041002000040078006c
:103314003e0b070068004700000178008100200090
:1033240030082000c3010700000000004f05be0064
:103334004f04be000080fa00000006001800fa00e6
:1033440040d5800051d580000001be008000eb0014
:103354000e0078002d0b070060d5800071d5800029
:103364000001be00410020000e007800270b07007a
:1033740000d4800011d480000200200043332400d4
:1033840047f7070000017800010078008202780006
:1033940000027800b2fd20009304240005007800a8
:1033a400840078000000be005ef60700000178008b
:1033b40001007800820178000001780003007800a1
:1033c400820078000001be00810020000e00780019
:1033d4000e0b070020d5800031d580000001be000f
:1033e400c10020000e007800080b0700e0d6800022
:1033f400f1d680000001be00010120000e0078001b
:10340400020b070000d4800011d480000001be002c
:10341400410120000e007800fc0a07000e0178002c
:103424008101200010082000820107000000000034
:103434000080fa00000006001c00fa00889fbe000d
:103444008a9fbe0080042100100278009002900040
:1034540020039000b00390000004210010047800c1
:103464009004900020059000b00590000005210014
:103474009000900020019000b001900010007800ae
:10348400809fbe00829fbe000800be000a01be00ed
:10349400360b0700e8875700008fbe0020d8800055
:1034a40031d88000640247000001be008000eb00b8
:1034b40004007800d50a070040d8800051d8800065
:1034c400640247000001be004100200004007800af
:1034d400ce0a070000d5800011d5800064024700a1
:1034e4000001be008100200004007800c70a070024
:1034f400000521009000900010007800640247004d
:103504000001be00c100200004007800bf0a0700cb
:1035140000052100b00090002000900064024700e4
:103524000001be000101200004007800b70a070072
:103534006400470000017800810120002008200079
:103544003c010700000000004f05be004f04be0010
:103554000080fa00000006000000fa0022d4800077
:1035640033d48000000421000288be0042d48000cd
:1035740053d48000000421002200980033009800f6
:103584000005210020019000b001900000052100f9
:1035940090009000100078000203be000002be00fc
:1035a4006011b8006000b8000500070000d588006d
:1035b40011d58800000000000080fa000000060019
:1035c4002800fa00889fbe008a9fbe00400f980022
:1035d400510f9800620f9800730f98000417980019
:1035e4001517980026179800371798004e09900071
:1035f400de0990000e1090009e109000dbf407008e
:10360400008fbe006e099000fe0990002e109000fd
:10361400be109000d5f407002007980031079800e9
:1036240020d4800031d480004e099000de0990003f
:10363400cef40700000178000100780082027800cf
:10364400000278001e0178009e01900005007800b9
:10365400840078000000be0091f6070000017800a5
:1036640001007800820478000004780040d48000cf
:1036740051d480006e099000fe099000bbf407004d
:1036840000017800010078008202780000027800ce
:103694002e019000be01900005007800840078009f
:1036a4000000be007ef607000001780001007800eb
:1036b400820178000001780003007800820078001d
:1036c4000001be0009007800880078000000be00f8
:1036d400aff407000001780001007800820478004c
:1036e400000478001e0178009e0190001e007800fe
:1036f4009e0090006af6070000017800010078003f
:1037040082057800000578002e019000be0190002b
:103714002e009000be00900061f6070000017800c2
:10372400010078008201780000017800030078002d
:10373400820078000001be000b0078008a00780047
:103744000000be0092f40700000178000100780038
:10375400820178000001780003007800820078007c
:103764000001be0009007800880078000000be0057
:103774006cf5070040079800510798001e01780077
:103784009e0190004e009000de00900044f6070079
:1037940000017800010078008201780000017800bf
:1037a40003007800820078000001be004e089000fb
:1037b400de08900076f4070060079800710798000f
:1037c4002e019000be0190004e009000de0090009b
:1037d40033f60700000178000100780082017800c8
:1037e4000001780003007800820078000001be0028
:1037f4006e089000fe08900065f40700000f980022
:10380400110f98004e099000de0990006e009000a0
:10381400fe00900055f407000001780001007800d4
:1038240082047800000478004e099000de099000bc
:103834006e009000fe0090004cf407000001780038
:10384400010078008201780000017800030078000c
:10385400820078000001be0009007800880078002a
:103864000000be000ef60700000178000100780099
:1038740082047800000478006e099000fe0990002c
:103884000e0890009e08900038f4070000017800ac
:103894000100780082057800000578006e09900028
:1038a400fe0990000e0890009e0890002ff4070077
:1038b400000178000100780082017800000178009e
:1038c40003007800820078000001be000b0078003d
:1038d4008a0078000000be00f1f5070000017800be
:1038e400010078008201780000017800030078006c
:1038f400820078000001be0009007800880078008a
:103904000000be0022f407000001780001007800e6
:1039140082017800000178000300780082007800ba
:103924000000be005ffa0700200f9800310f9800d6
:10393400ae0890003e0890008101780000017800f4
:1039440003007800820078000000be004f05be002e
:103954004f04be000080fa00000006000a00fa00ce
:103964002007980031079800420798000040eb00b8
:10397400004f78009e407800e0cfb30000c068009c
:10398400004f78002e0090004880de0080407800d0
:103994001e40780000c06800004f78002e009000a0
:1039a400804078001e40780000c06800004f780016
:1039b4003e0090004880de00804078001e40780081
:1039c40000c06800004f78003e00900080407800fe
:1039d4001e40780000c06800004f78000000eb0033
:1039e400100798000c0037001e009000e800470004
:1039f40011004000104078009e40780000c068002c
:103a0400004f78000e80e8008e80e8001108e8007e
:103a140090007800110798009e0090003e009000ee
:103a2400808f5000f0ff35001e4078000080fa00bf
:103a3400000006000a00fa00881f7800200798009a
:103a440031079800420798000000eb00000f78004f
:103a54009e007800010fe800e017210001004000fb
:103a6400e1cfb300014878002e0090004880de00ca
:103a74009e007800010fe80000417800e017210063
:103a840001004000024878009e007800010fe80021
:103a94002e00900000417800e01721000100400052
:103aa400024878003e0090004880de009e007800c6
:103ab400010fe80000417800e017210001004000f8
:103ac400024878009e007800010fe8003e00900054
:103ad40000417800e017210001004000024878000e
:103ae4000000eb00100798000e0037001e00900045
:103af400e8004700110040009e007800010fe80034
:103b040010417800e01721000100400002487800cd
:103b14000e80e8008e80e8001108e800900078002c
:103b2400110798009e0090003e009000808f500086
:103b3400eeff35001e047800080fe8004e019000e7
:103b4400be0090002e00900084ff070080407800a3
:103b5400e017210008004000014878009e0078002a
:103b6400e0172100060c0700000000004f04780055
:103b74000080fa00000006000200fa00004f7800fe
:103b840050808000e30f500022003200e30f500009
:103b940007003c00e10f500012003200e10f50001a
:103ba40015003c000000e00008003200450037002a
:103bb400e50f500024003200e50f50001b003500d3
:103bc400e60f50002f0032003e0037001e40780000
:103bd400e24f40003d003a00100020005080880071
:103be4003a0037001e80fb0000808800200020007f
:103bf40050808800380037001e80fb000180800060
:103c040001004000008088003000200050808800bf
:103c1400310037001e80fb004800dd001080880062
:103c240040002000508088002b0037001e80fb00dd
:103c340011808000010040001080880050002000a6
:103c44005080880024003700218080006009210012
:103c5400010040001e487800208080000000e80039
:103c6400208088002180800010808000808f500098
:103c74001800350060002000508088000430ef00f8
:103c84001400370011808000008080006209210048
:103c940032ff07000080fb00408088001e80fb008c
:103ca40041808000810f500004003a0011808000a0
:103cb40000808000620921000a0007000a30ef003a
:103cc400050037000a30ef00030037000000000051
:103cd4000100370000000000000000000080fa002e
:103ce400000006000a00fa00889fbe008a9fbe00fa
:103cf400200798003107980042079800ae00900012
:103d040020052000808f500065003200ae00900036
:103d140020052000808f500009003c00ae00900078
:103d240000022000808f500012003200ae0090008c
:103d340010052000808f5000550032000c0237001f
:103d4400ae00900010082000808f5000a7003200c1
:103d5400ae00900030082000808f5000e701320050
:103d6400ae00900070062000808f5000500032009a
:103d7400ff0137004e0090009040780010c3b3005c
:103d840080cf500009003a00680047001000e800a6
:103d94009040780010c3b30080cf500002003a0076
:103da40084cea8000100370084cea9004e00900004
:103db4009040780020c3b30080cf500009003a003f
:103dc400680047001000e8009040780010c3b3007a
:103dd40080cf500002003a0084aea80001003700f2
:103de40084aea9004e0090009040780030c3b30028
:103df40080cf500009003a00680047001000e80036
:103e04009040780010c3b30080cf500002003a0005
:103e1400848ea80001003700848ea9004e00900013
:103e24009040780040c3b30080cf500009003a00ae
:103e3400680047001000e8009040780010c3b30009
:103e440080cf500002003a00856ea80001003700c0
:103e5400856ea9004e0090009040780050c3b300d6
:103e640080cf5000c1013a00680047001000e8000c
:103e74009040780010c3b30080cf500002003a0095
:103e8400754ea800b9013700754ea900b701370077
:103e94004e00900010407800ba010700b4013700ca
:103ea4004e00900010407800ea010700b00137008e
:103eb400c10120004e009000100b07000005be0059
:103ec400810120004e0090000c0b07000004be008e
:103ed400410120004e009000080b07000001be00c5
:103ee4006000b800809fbe0000002000813c2400d8
:103ef400809fbe000000200001122400809fbe00ad
:103f04000a03be000802be00c09d2100de010700b6
:103f1400ec8757008000eb004e009000f70a070082
:103f24000005be00410020004e009000f30a070087
:103f34000004be00810020004e009000ef0a07003c
:103f44000001be006000b800809fbe000000200099
:103f5400813c2400809fbe00000020000112240048
:103f6400809fbe000a03be000802be0000a121001b
:103f7400c5010700ec8757004e019000be00900079
:103f840080062000abfe0700010120004e009000d7
:103f9400da0a07000004be00c10020004e009000b1
:103fa400d60a07000801be00df0107004101200016
:103fb4004e009000d10a070080808800918088001c
:103fc400810120004e009000cc0a0700a0808800e8
:103fd400b1808800c10120004e009000c70a07008c
:103fe400c0808800d1808800610137001000200063
:103ff400708088008000eb004e009000bf0a07002c
:1040040020d4880031d48800410020004e00900064
:10401400ba0a070040d4880051d4880081002000e7
:104024004e009000b50a0700a0d68800b1d68800db
:1040340024d4800035d4800020d4800031d4800082
:104044000001be000400be0015f407000001780062
:1040540001007800820478000004780044d48000d1
:1040640055d4800040d4800051d480000001be00ab
:104074000400be000af40700000178000100780083
:104084008201780000017800030078008200780043
:104094000001be0009007800880078000000be001e
:1040a4003bf20700000178000100780082017800eb
:1040b4000001780003007800820078000000be0050
:1040c40078f8070000d8880011d8880020d4800030
:1040d40031d480006011b800ccf107000000e0008a
:1040e40029003a0040d4800051d480006011b80007
:1040f400c6f107000000e00012003d00a0d68000d9
:10410400b1d680000001be00b0fd200091fc2b0060
:1041140016f207008001780001017800030078009e
:10412400820078000000be0060d4880071d488004a
:10413400b0fd200091fc2b00c0d68800d1d68800a9
:1041440011003700a0d68000b1d680000001be0067
:10415400b0fd200091fc230004f2070080017800e8
:104164000101780003007800820078000000be009e
:1041740060d4880071d48800b0fd200091fc230035
:10418400c0d68800d1d6880020d4800031d48000e5
:104194006011b8009ff107000000e0002e00340019
:1041a40044d4800055d4800020d4800031d48000d1
:1041b4000001be000400be00daf20700000178002e
:1041c4000100780082017800000178000300780083
:1041d400820078000000be00dbf507000002be008c
:1041e400a0d68000b1d680000001be000400be004d
:1041f400def10700800178000101780003007800f7
:10420400820078000000be0060d4880071d4880069
:1042140044d4800055d4800020d4800031d4800060
:104224000001be000400be00bef2070000017800d9
:104234000100780082017800000178000300780012
:10424400820078000000be00bff50700c0d68800d9
:10425400d1d688008700370020d4800031d4800074
:104264006011b80069f107000000e00081003d0022
:1042740040d4800051d480006011b80065f107007b
:104284000000e0003e00340044d4800055d4800097
:1042940020d4800031d480000001be000400be00a0
:1042a400a0f2070000017800010078008201780084
:1042b4000001780003007800820078000000be004e
:1042c400a1f50700b2fd200093042400b0f107001b
:1042d4000001780001007800820278000002780072
:1042e400a0d68000b1d680000001be000500780091
:1042f400840078000000be009cf107008001780073
:104304000101780003007800820078000000be00fc
:1043140060d4880071d4880044d4800055d48000cf
:1043240020d4800031d480000001be000400be000f
:104334007cf2070000017800010078008201780017
:104344000001780003007800820078000000be00bd
:104354007df50700b2fd2000930424008cf10700d2
:104364008001780001017800030078008200780061
:104374000000be00c0d68800d1d688003d003700ba
:1043840044d4800055d4800020d4800031d48000ef
:104394000001be000400be0062f2070000017800c4
:1043a400010078008202780000027800a0d6800024
:1043b400b1d680000001be000500780084007800ba
:1043c4000000be0069f107000001780001007800d8
:1043d40082017800000178000300780082007800f0
:1043e4000000be0058f50700b2fd2000930424002d
:1043f4005ef1070080017800010178000300780075
:10440400820078000000be0060d4880071d4880067
:1044140044d4800055d4800020d4800031d480005e
:104424000001be000400be003ef207000001780057
:104434000100780082017800000178000300780010
:10444400820078000000be003ff50700b2fd2000a6
:104454009304240045f107008001780001017800ed
:1044640003007800820078000000be00c0d68800f7
:10447400d1d688006dfb0700000020000122240033
:10448400008fbe0000d6800011d68000fef5070024
:104494001e0178009e01900001f3070000017800de
:1044a40001007800020278008001780002052100f2
:1044b40004007800830078000089be0000d68000e4
:1044c40011d68000f8f607001e0178009e019000c6
:1044d400f3f207000001780001007800020278007e
:1044e4008001780002052100040078008300780030
:1044f40020019800310198001d0037008000eb0076
:104504004e0090007d090700e0808800f18088005b
:10451400410020004e009000780907000004be000e
:104524008000eb004e009000740907000001be00fb
:104534000000200081342400809fbe000000200081
:10454400813c2400809fbe0000002000812c2400b8
:10455400809fbe000803be006022b80040a4210072
:1045640049000700ec8757000100370000000000f5
:10457400000000004f05be004f04be000080fa009a
:10458400000006000200fa00004f78001e80fb00c5
:10459400e60f50001c003200e60f500007003c00fc
:1045a400e20f500012003200e40f500013003200fa
:1045b4000000e0000d00320021003700ea0f500037
:1045c40017003200ea0f500003003c00e80f5000cf
:1045d400100032001a003700ec0f500013003200b4
:1045e400ee0f500013003200150037005e70ef002c
:1045f40020c0b3005ef0b7001300370040c0b30022
:104604005ef0b7001000370060c0b3005ef0b70082
:104614000d00370080c0b3005ef0b7000a00370019
:10462400a0c0b3005ef0b70007003700c0c0b300fd
:104634005ef0b700e0c0b3005ef0b70002003700e0
:104644005e70ef0000000000000000000080fa002f
:10465400000006000200fa00004f78001e407800b7
:104664000004e00003003a000c30ef005e70ef003d
:104674000200370010002000608088000000000065
:104684000080fa00000006000e00fa00000f780017
:1046940012079800230798003407980045079800ec
:1046a40056079800670798001e0078001e019000c6
:1046b400ae0190000288be001e0078003eb997004b
:1046c400ceb9970062009800730098001e0078002d
:1046d4003e019000ce019000220098003300980023
:1046e4001e0078001eb99700aeb997000208980022
:1046f400130898001e0078005e019000ee019000ff
:1047040042009800530098001e0078007eb1970084
:104714008eb9970022089800330898000000000022
:104724000080fa00000006000800fa00008fbe00b6
:1047340022079800330798001e0178009e0190001c
:10474400c2d38800d3d388002e019000be0190000c
:10475400e2d38800f3d38800000000000080fa0050
:10476400000006000800fa00008fbe00220798002f
:104774003307980042b62300f3dd23002e00900097
:10478400be00900046f207000001780001007800a6
:1047940082027800000278001e0178009e019000d9
:1047a40005007800840078000000be0078f007005f
:1047b400800178000101780003007800820078000d
:1047c4000000be0040cc880051cc880042b62300d3
:1047d400f3dd23002e009000be00900030f20700ad
:1047e400000178000100780082017800000178005f
:1047f40003007800820078000001be001e007800eb
:104804009e00900059f007008001780001017800b3
:1048140003007800820078000000be0000cc88000d
:1048240011cc880040cc800051cc800002002000d4
:1048340003202c001af2070080017800010178009f
:1048440003007800820078000000be0060ce88007b
:1048540071ce880000cc800011cc800002002000c2
:10486400032024000ef20700800178000101780083
:1048740003007800820078000000be0080ce88002b
:1048840091ce880060ce800071ce800004002000ac
:10489400852c240002002000832c2c003d080700f6
:1048a40080ce800091ce800004002000852c24005e
:1048b40002002000832c2c003608070000000000b2
:1048c4000080fa00000006001200fa00889fbe0073
:1048d4006007980072079800030f98006e0090001c
:1048e4007e0190008e099000021098001310980029
:1048f4006e00900060029000f00290006e00900044
:1049040090009000100078000001be000400be007a
:1049140004f10700000178000100780082047800a7
:10492400000478006e009000f00090006000900099
:1049340001f0a2006e019000920190001201780033
:10494400f8f0070000017800010078008201780087
:10495400000178007e0390008e0b9000090078001f
:10496400880078000002be0003007800820078000e
:104974000001be000600be0006080700008fbe004e
:104984006e00900090009000100078001e017800e6
:104994009e019000c2f107008001780001017800b7
:1049a40003007800820078000001be006e009000d1
:1049b40022109800331098006e009000400c900074
:1049c400d00c900002002000a33724007e00900049
:1049d4008e089000d3f007000001780001007800f1
:1049e40082017800000178000300780082007800da
:1049f4000001be000800be00e5ef0700800178005a
:104a04000101780003007800820078000001be00f4
:104a14006e00900042089800530898006e009000c1
:104a2400000a9000900a90006e009000b000900080
:104a3400200090000001be000400be00b9f0070091
:104a440000017800010078008204780000047800f6
:104a54006e009000900890000008900001f0a20001
:104a64006e019000b201900022019000adf00700a9
:104a740000017800010078008201780000017800cc
:104a84006e009000400b9000d00b9000090078005d
:104a9400880078000002be000300780082007800dd
:104aa4000001be000600be00ba0707000001be00f8
:104ab4006e00900042089800530898006e00900021
:104ac40020029000b00290006e009000d008900088
:104ad400400890000001be000400be0070f1070011
:104ae40080017800010178000300780082007800da
:104af4000001be006e009000421098005310980010
:104b04006e009000f0089000600890000001be0064
:104b14007e0090008e08900094ef0700000178005a
:104b24000100780082027800000278000200200070
:104b3400a337240005007800840078000000be003c
:104b440057f1070020079800310798006e00900085
:104b5400200a9000b00a90006e009000d0009000ef
:104b6400400090000001be000400be006df007008c
:104b740000017800010078008204780000047800c5
:104b84006e009000b00890002008900001f0a20090
:104b94006e019000d20190004201900061f0070084
:104ba400000178000100780082017800000178009b
:104bb4002e039000be03900009007800880078005e
:104bc4000002be0003007800820078000001be00ed
:104bd4000600be006f0707004007980051079800c1
:104be4006e0090007e0190008e099000620898008b
:104bf400730898006e009000d00090004000900070
:104c04004e019000de01900025f10700800178003c
:104c14000101780003007800820078000001be00e2
:104c24006e00900062109800731098006e0090005f
:104c340020129000b01290006e009000d0109000ee
:104c4400401090000001be000400be0050ef0700b9
:104c540000017800010078008202780000027800e8
:104c64006e009000f0109000601090000001be00f3
:104c740005007800840078000000be0044ef0700bf
:104c8400000178000100780082007800810178003a
:104c94000001780003007800820078000000be0064
:104ca4004f04be000080fa00000006000000fa0075
:104cb400c4d38000d5d3800060cd800071cd800046
:104cc4000001be000400be0028ef07008001780048
:104cd4000101780003007800820078000000be0023
:104ce400e0cf8800f1cf8800e4d38000f5d38000c2
:104cf40080cd800091cd80000001be000400be0084
:104d04001aef0700800178000101780003007800a1
:104d1400820078000000be0080d1880091d1880014
:104d2400e0cf8000f1cf80000001be00c09d2100d3
:104d3400e5fe0700a0ce8800b1ce880080d18000b7
:104d440091d180000001be0000a12100defe070019
:104d5400c0ce8800d1ce8800c0ce8000d1ce8000e5
:104d6400a4ce8000b5ce80000001be000400be00c9
:104d74007cfe07005b000700000000000080fa00d2
:104d8400000006000000fa001f00070064d4800041
:104d940075d4800040ce800051ce80000001be005a
:104da4000400be00f1ee07008001780001017800e4
:104db40003007800820078000000be0020d3880041
:104dc40031d3880020d3800031d380000001be009d
:104dd40040a42100bcfe0700c0ce8800d1ce8800cc
:104de400c0ce8000d1ce8000a4ce8000b5ce80009d
:104df4000001be000400be005afe070000000000cf
:104e04000080fa00000006000400fa0044ce80008e
:104e140055ce800080838000918380000001be0015
:104e24000400be00d1ee0700008fbe00b2fd2000da
:104e3400930424001e0078009e00900075ee070085
:104e44000000e00006003400b2fd2000930c2400b2
:104e54001e0078009e009000c4ee0700008fbe0084
:104e6400b2fd200093042c001e0078009e009000e8
:104e740066ee07000000e00006003d00b2fd2000e1
:104e8400930c24001e0078009e009000c0ee0700e2
:104e9400008fbe00a0838000b18380001e017800d3
:104ea4009e019000baee070000017800010078002e
:104eb4008201780000017800030078008200780005
:104ec400a0838800b183880040ce800051ce80004a
:104ed4008083880091838800000000000080fa002d
:104ee400000006005800fa00e0cf8000f1cf8000f7
:104ef4000001be008000eb000e00780043040700b0
:104f040060cd800071cd80000001be004100200012
:104f14000e0078003d040700e0ce8000f1ce800052
:104f24000001be00810020000e0078003704070055
:104f340000d0800011d080000001be00c10020001c
:104f44000e0078003104070040cf800051cf80006c
:104f54000001be00010120000e0078002b040700b0
:104f640000cf800011cf80000001be00410120006d
:104f74000e0078002504070020d0800031d0800086
:104f84000001be00810120000e0078001f0407000c
:104f940060cf800071cf80000001be00c1012000fd
:104fa4000e0078001904070020cf800031cf800064
:104fb4000001be00010220000e0078001304070067
:104fc40040d0800051d080000001be00410220008a
:104fd4000e0078000d04070080cf800091cf800080
:104fe4000001be00810220000e00780007040700c3
:104ff40080d1800091d180000001be00c102200058
:105004000e0078000104070080cd800091cd80005f
:105014000001be00010320000e007800fb0307001e
:1050240080d0800091d080000001be0041032000a8
:105034000e007800f5030700a0d18000b1d18000f4
:105044000001be00810320000e007800ef0307007a
:10505400e0d08000f1d080000001be00c103200038
:105064000e007800e9030700a0d08000b1d08000d2
:105074000001be00010420000e007800e3030700d5
:10508400c0d18000d1d180000001be0041042000c5
:105094000e007800dd03070000d1800011d18000ec
:1050a4000001be00810420000e007800d703070031
:1050b400c0d08000d1d080000001be00c104200017
:1050c4000e007800d1030700e0d18000f1d1800008
:1050d4000001be00010520000e007800cb0307008c
:1050e40020d1800031d180000001be0041052000a4
:1050f4000e007800c50307000e017800810520002a
:10510400900620004bfa0700000000000080fa001f
:10511400000006000000fa00c301a800dca1ef00b3
:10512400dea1ef00c1e1a8006030ef006230ef00c3
:10513400000000000080fa00000006000000fa00f1
:10514400c305a800dca5ef00dea5ef00c1e5a800bb
:10515400000000000080fa00000006000800fa00c9
:10516400889fbe008a9fbe0020818000318180001c
:105174000081880011818800608180007181800035
:105184004081880051818800300e80008000eb004f
:10519400008fbe00500e80008000eb00c000dd00d8
:1051a400000020001e0f40005e974800302e800053
:1051b4008000eb002007980031079800502e8000f3
:1051c4008000eb00c000dd00000020006401470007
:1051d400e40147003319400023914800120278008b
:1051e4009202900024079800350798001e0078006a
:1051f4009e009000c5ed0700c2532e007378230073
:10520400a7ef070000017800010078008201780010
:105214000001780003007800820078002081880073
:10522400318188002e009000be009000b7ed070089
:10523400c2532e0073782b0099ef07000001780009
:1052440001007800820178000001780003007800f2
:105254008200780060818800718188002481800048
:105264003581800000818000118180000001be0032
:105274000400be00bded07000001780001007800c5
:105284008201780000017800030078008200780031
:10529400808188009181880064818000758180000c
:1052a40040818000518180000001be000400be00e6
:1052b400aeed07000001780001007800820178005b
:1052c400000178000300780082007800a081880043
:1052d400b181880080818000918180006a05070087
:1052e4000002be00c0818000d18180000001be00a8
:1052f4000400be00a6ed070000017800010078005c
:1053040082017800000178000300780082007800b0
:10531400c0818800d1818800a0818000b181800093
:10532400590507000002be00e0818000f181800081
:105334000001be000400be0095ed07008001780066
:105344000101780003007800820078000000be00ac
:10535400e0818800f1818800808180009181800053
:1053640002002000a33724004def070080017800dd
:105374000101780003007800820078000000be007c
:1053840020cd880031cd8800a0818000b1818000cb
:1053940002002000a337240041ef070080017800b9
:1053a4000101780003007800820078000000be004c
:1053b40040cd880051cd880024cd800035cd8000bb
:1053c40040cd800051cd80000001be000400be002d
:1053d4006fed070000017800010078008202780078
:1053e4000002780002002000030024000500780079
:1053f400840078000000be004aee070080017800b7
:105404000101780003007800820078000000be00eb
:1054140060cd880071cd880024cd800035cd80001a
:1054240040cd800051cd80000001be000400be00cc
:105434004eed070000017800010078008202780038
:105444000002780042b62300f3e52300050078004b
:10545400840078000000be0032ee0700800178006e
:105464000101780003007800820078000000be008b
:1054740080cd880091cd8800c0cd8000d1cd800042
:10548400a0cd8800b1cd880000ce800011ce800070
:10549400e0cd8800f1cd880040ce800051ce800060
:1054a40020ce880031ce8800a8cd8000b9cd800000
:1054b4006acd80007bcd800040ce800051ce80003c
:1054c400f1f107000001be000a00be00f4ee07007f
:1054d4000001780001007800820278000002780060
:1054e40002002000a337240005007800840078001f
:1054f4000000be000bee07000001780001007800f8
:1055040082017800000178000300780082007800ae
:105514000001be000800be001ded070080017800f8
:105524000101780003007800820078000000be00ca
:10553400c0cd8800d1cd8800e8cd8000f9cd8000b1
:105544006acd80007bcd800040ce800051ce8000ab
:10555400d5f207000001be000a00be00d0ee07002d
:1055640000017800010078008202780000027800cf
:1055740002002000a337240005007800840078008e
:105584000000be00e7ed070000017800010078008c
:10559400820178000001780003007800820078001e
:1055a4000001be000800be00f9ec0700800178008d
:1055b4000101780003007800820078000000be003a
:1055c40000ce880011ce880028ce800039ce80001d
:1055d40080cd800091cd800002002000a3372400fc
:1055e400d0ed070000017800010078008201780006
:1055f4000001780003007800820078000001be00fa
:105604000800be00e2ec0700800178000101780088
:1056140003007800820078000000be0040ce8800bd
:1056240051ce880040ce800051ce8000b2fd2000d3
:105634009304240077ec07000000e0000c00340021
:1056440040ce800051ce8000b2fd2000930c240097
:10565400c6ec07008001780001017800030078009f
:10566400820078000000be0040ce880051ce880041
:1056740040ce800051ce8000b2fd200093042c0067
:1056840062ec07000000e000010035000c00370068
:1056940040ce800051ce8000b2fd2000930c240047
:1056a400bbec07008001780001017800030078005a
:1056b400820078000000be0040ce880051ce8800f1
:1056c400000000004f05be004f04be000080fa0039
:1056d400000006001800fa00008380001183800097
:1056e40000017800810178008000eb000e00780052
:1056f40063020700e0818000f18180000001be00a8
